:020000040800F2
:10000000BCC20020313C0008893C0008893C000843
:10001000893C0008893C0008893C00080000000079
:10002000000000000000000000000000893C000803
:10003000893C000800000000893C00086950000865
:10004000893C0008893C0008893C0008893C00087C
:10005000893C0008893C0008893C0008893C00086C
:10006000893C0008893C0008893C0008893C00085C
:10007000893C0008893C0008893C0008893C00084C
:10008000893C0008893C0008893C0008893C00083C
:10009000893C0008893C0008893C0008893C00082C
:1000A000893C0008893C0008893C0008893C00081C
:1000B000893C0008893C0008893C0008893C00080C
:1000C000893C0008893C0008893C0008893C0008FC
:1000D000893C0008893C0008893C0008893C0008EC
:1000E000893C0008893C0008893C0008893C0008DC
:1000F000893C0008893C0008893C0008893C0008CC
:10010000893C0008893C0008893C0008893C0008BB
:10011000893C0008893C0008893C0008893C0008AB
:10012000893C0008893C0008893C0008893C00089B
:10013000893C0008893C0008893C0008893C00088B
:10014000893C0008893C0008893C0008893C00087B
:10015000893C0008893C0008893C0008893C00086B
:10016000893C0008893C0008893C0008893C00085B
:10017000893C0008893C0008893C0008893C00084B
:10018000893C0008893C000890B484B000AF034665
:100190000A46FB711346BB710023FB60BB7903F079
:1001A00003039B000F2202FA03F3FB601649BB799D
:1001B0009B08DBB21846144ABB799B08DBB20233BA
:1001C00052F82320FB68DB431A40831C41F82320AC
:1001D0000D48BB799B08DBB21C460B4ABB799B08D8
:1001E000DBB2023352F82320F979BB7903F0030321
:1001F0009B0001FA03F31A43A31C40F82320103795
:10020000BD4690BC704700BF0038014080B483B049
:1002100000AF7860034A7B6813600C37BD465DF819
:10022000047B7047DC00274280B485B000AF786063
:10023000294B1B687A6812881344FB607A68FB6854
:100240009A421FD0FB681B79002B1BD1234B1B68E4
:10025000FA689A4216D0224B1A68FB689A4202D179
:100260001F4A7B681360FB681A887B681A801A4BE8
:100270001B68FA68128813447A6817490968521A89
:1002800092B25A80144B1B687A6852881344BB6040
:10029000BA687B689A421AD0BB681B79002B16D1CA
:1002A0000F4B1A687B689A4202D10D4ABB681360F3
:1002B0007B681A88BB681A80074B1B687A681288AB
:1002C0001344BA6804490968521A92B25A80143722
:1002D000BD465DF8047B7047C0280020C42800207C
:1002E000C828002080B483B000AF1A4B033323F03A
:1002F00003031A46184B1A60174B1B687B607B6818
:100300004FF420521A807B6800225A807B680022BA
:100310001A71114B1B6803F52053104A13600F4BE1
:100320001B6801221A710D4B1B684FF420521A8072
:100330000A4B1B684FF420525A80094B01221A7055
:10034000054B1B68074A13600C37BD465DF8047BFC
:10035000704700BFAC000020C0280020C428002047
:10036000CC280020C828002080B584B000AF786079
:100370007B68002B00D11FE0114B1B687A689A4202
:100380000F4B1B687A689A4204D30E4B1B687A683D
:100390009A4200D310E07B68083BFB60FB680022B8
:1003A0001A71094B1B68FA689A4202D2064AFB6826
:1003B0001360F868FFF738FF1037BD4680BD00BFF7
:1003C000C0280020C4280020C828002080B487B09E
:1003D00000AF78600B467B807B8803339BB223F0B1
:1003E00003037B807B880B2B01D80C237B807B88CD
:1003F000B3F5205F01D900239AE0504B1B687A685F
:100400009A424E4B1B687A689A4204D34C4B1B6845
:100410007A689A4201D37B688AE07B68083B7B61FB
:100420007B69464A12689B1A7B827B691A887B8AA1
:10043000D31A9BB2083B3B827A883B8A9A4201D905
:10044000002375E07A883B8A9A4201D17B686FE08D
:100450003A4B1B687A6912881344FB60FB681B796E
:10046000002B32D1FB681B887B817A8A7B881344FE
:100470009BB208333B81334B1A68FB689A4205D123
:100480002E4B1A683B8913442E4A13602B4B1A6873
:100490003B891344FB60FB6800221A71FB687A8970
:1004A0001A80FB687A8A5A807B693A891A80FB68CD
:1004B0001B88B3F5205F07D0204B1B68FA681288B1
:1004C00013443A895A8032E031E07B8803F1140208
:1004D0003B8A9A422BD87A8A7B8813449BB2083392
:1004E0003B81164B1A683B891344FB60154B1B6814
:1004F000FA689A4202D2134AFB681360FB68002232
:100500001A717B691A88FB681A80FB687A8A5A809C
:100510007B693A891A80FB681B88B3F5205F06D097
:10052000064B1B68FA68128813443A895A807B6824
:1005300018461C37BD465DF8047B7047C028002074
:10054000C4280020C828002080B487B000AF03462C
:10055000FB80FB88002B01D100238FE0FB88033355
:100560009BB223F00303FB80FB880B2B01D80C23E9
:10057000FB80FB88B3F5205F01D900237EE0424B6E
:100580001B681A46414B1B68D31AFB826FE03F4B36
:100590001A68FB8A13443B613B691B79002B60D1CD
:1005A0003B691B881A46FB8AD31AA3F10802FB8811
:1005B0009A4256D33B691B881A46FB8AD31AA3F189
:1005C0000802FB8814339A4227D3FA8AFB88134423
:1005D0009BB20833FB812D4B1A68FB891344BB6027
:1005E000BB6800221A713B691A88BB681A80BB6815
:1005F000FA8A5A803B69FA891A803B6901221A718A
:10060000BB681B88B3F5205F0AD0204B1B68BA6813
:1006100012881344FA895A8002E03B6901221A7158
:10062000194B1B683A699A4218D107E0174B1B68AF
:10063000154A126812881344134A1360124B1B6840
:100640001B79002B05D0104B1A68114B1B689A427E
:10065000ECD10D4B1A680E4B1B689A423B6908336C
:100660000CE00A4B1A68FB8A13441B88FB82FA8A47
:10067000FB88C3F520539A4289DB002318461C37B8
:10068000BD465DF8047B7047C8280020C0280020C4
:10069000C428002080B500AF00F036FD074B1B7862
:1006A0000133DAB2054B1A70044B1B7803F00103D7
:1006B000002B01D000F042FB80BD00BFD0280020FD
:1006C00080B584B000AF78607B681B7C072B00F29C
:1006D0008B8001A252F823F0F90600085B0700089E
:1006E000750700088F070008AD070008E907000834
:1006F000E9070008CB0700080023FB73454B1A6885
:100700007B689A4205D1434B1B68DB68414A136002
:1007100019E0404B1B68404A136010E03E4B1B68D9
:10072000DA687B689A4205D13B4B1B687A68D268CD
:10073000DA6008E0384B1B68DB68374A1360364BD9
:100740001B68002BEAD17B680022DA6002207968FE
:1007500002F096FC00237B604BE00023FB732F48E4
:10076000796800F01DFF0320796802F089FC0023FE
:100770007B603EE00023FB732948796800F010FF9E
:100780000220796802F07CFC00237B6031E078680D
:10079000012108F063FB0346FB7397F90F30002B30
:1007A00003D17B6805221A7423E022E078680121D6
:1007B00008F054FB0346FB7397F90F30002B03D16D
:1007C0007B6805221A7414E013E07868012108F0B0
:1007D00045FB0346FB7397F90F30002B03D17B6871
:1007E00009221A7405E004E00023FB7300237B60F8
:1007F00000BF7B68002B06D097F90F30002B02D189
:10080000786808F083FEFB7B5BB218461037BD4664
:1008100080BD00BF7C7D0020787D0020747D00209D
:100820006C7D002090B58DB002AF786039607B6838
:100830001B7C0A2B08D13148796800F0B1FE0220F8
:10084000796802F01DFC55E07B689B6D7B627B68DC
:100850005B6A3B627B68002B02D07B681B6800E010
:100860000023FB607B680433002B02D07B685B684D
:1008700000E000233B617B681B8BFB837B681B8C48
:10088000BB837B68D3F89030BB617B685B697B611D
:100890001B48796800F084FE7B689B6F002B04D0B6
:1008A0007B689B6F184600F087FC7B685B6F002BB2
:1008B00004D07B685B6F184600F07EFC02207968EC
:1008C00002F0DEFBBB69002B04D0BB6978696FF0D6
:1008D000040198473B68002B0CD007F10C0207F18C
:1008E0001004FB8B0093BB8B0193786A396A234613
:1008F00009F018F82C37BD4690BD00BF807D002060
:100900006C7D002080B586B000AFF860B9601346FA
:10091000FB80FB681B7C002B01D0F323A2E0FB884B
:10092000002B03D100F0B4F90346FB80504B1B6849
:100930007B611DE07B691B8BFA889A4215D17B692C
:10094000002B10D07B691B68002B0CD0BB68002BE0
:1009500009D0BB681B68002B05D07B691A68BB688F
:100960001B689A4201D1F5237CE07B69DB687B61DF
:100970007B69002BDED13F4B1B687B611DE07B69EF
:100980001B8BFA889A4215D17B69002B10D07B69AA
:100990001B68002B0CD0BB68002B09D0BB681B6800
:1009A000002B05D07B691A68BB681B689A4201D18D
:1009B000F52357E07B69DB687B617B69002BDED127
:1009C0002D4B1B687B611DE07B691B8BFA889A426B
:1009D00015D17B69002B10D07B691B68002B0CD0D4
:1009E000BB68002B09D0BB681B68002B05D07B6956
:1009F0001A68BB681B689A4201D1F52332E07B6913
:100A0000DB687B617B69002BDED11C4B1B687B6143
:100A10000FE07B691B8BFA889A4207D17B691A68C1
:100A2000BB681B689A4201D1F5231BE07B69DB6838
:100A30007B617B69002BECD1BB68002B07D0BB68C6
:100A40001B68002B03D0FB68BA6810681860FB684D
:100A5000FA881A83084B1A68FB68DA60064AFB6852
:100A6000136000235BB218461837BD4680BD00BF37
:100A7000747D00206C7D00207C7D0020807D002026
:100A800080B485B000AFF860B9601346FB71FB23FA
:100A90005BB218461437BD465DF8047B704700BF53
:100AA00080B584B000AF78600B46FB707B681B7C20
:100AB000002B01D000236CE07B681B7C012B01D153
:100AC0007B6866E0032002F0B9FAF860FB68002B4F
:100AD00001D100235DE07B685A69FB685A617B683D
:100AE0001A8BFB681A83FB6801221A747B681A89C7
:100AF000FB681A81FB681B8943F002039AB2FB680A
:100B00001A817B68DA7AFB68DA727B689A7AFB680A
:100B10009A727B68002B02D07B681B6800E0002380
:100B2000FA6813601D4B1A687B689A4205D11B4B0B
:100B30001B68DB68194A136019E0184B1B68184AD8
:100B4000136010E0164B1B68DA687B689A4205D187
:100B5000134B1B687A68D268DA6008E0104B1B6898
:100B6000DB680F4A13600E4B1B68002BEAD17B68D1
:100B70000022DA600220796802F082FAFB68094AF2
:100B8000DA61094B1A68FB68DA60074AFB68136090
:100B9000FB6818461037BD4680BD00BF7C7D002035
:100BA000787D0020810A0008747D002080B485B023
:100BB00000AF78607B685B6A7A68128D1344FB60D3
:100BC0007B68DB6A7A68128F40F2B4518A4202D89D
:100BD0007A68128F01E040F2B4521344FA68D31AD3
:100BE000002B08DB7B681A8D7B685A857B68DB6A83
:100BF000FA68D31A15E07B685A6A7B68DB6AD31AF5
:100C0000002B03DD7B6800225A8509E07B68DB6AE4
:100C10009AB27B685B6A9BB2D31A9AB27B685A8598
:100C2000002318461437BD465DF8047B704700BFAB
:100C300080B584B000AF78600B467B807B681A8DEE
:100C40007B8813449AB27B681A857B681B8D40F6BB
:100C50006832934203D97B6840F668321A85786817
:100C6000FFF7A4FF0346FB60FB6840F2D9229342E2
:100C70000BDD7B6893F8223043F00203DAB27B6825
:100C800083F82220786808F041FC1037BD4680BD0B
:100C900080B483B000AF254B1B8801339AB2234B3D
:100CA0001A80224B1B889BB21BB2002B03DA1F4B0E
:100CB0004FF480521A801E4B1B687B6009E07B68F2
:100CC0001A8B1A4B1B889A4200D1E4E77B68DB68D9
:100CD0007B607B68002BF2D1164B1B687B6009E0C0
:100CE0007B681A8B114B1B889A4200D1D3E77B6833
:100CF000DB687B607B68002BF2D10F4B1B687B604D
:100D000009E07B681A8B094B1B889A4200D1C2E725
:100D10007B68DB687B607B68002BF2D1034B1B8810
:100D200018460C37BD465DF8047B70472C00002048
:100D30006C7D0020807D0020747D0020B0B588B0DF
:100D400002AF00237B73974B1B680133954A1360F6
:100D500000233B61944B1B687B6191E10023FB7393
:100D60000023BB737B691B7C022B08D17B6993F842
:100D70004A30062B03D1FB7B0133FB7392E07B6986
:100D800093F84A300C2B03D1FB7B0133FB7389E0D2
:100D90007B6993F89C30002B26D07B69D3F8983080
:100DA0005A1C7B69C3F898207B69D3F898307A691C
:100DB00092F89C20013A7D498A5C934272D37B6908
:100DC0000022C3F898207B6993F89C30062B07D843
:100DD0007B6993F89C300133DAB27B6983F89C20FD
:100DE000786908F001FF5DE07B69DB8E1BB2002BA8
:100DF00007DB7B69DB8E9BB201339BB29AB27B69C6
:100E0000DA867B699B6F002B4CD07B69DA8E7B691D
:100E1000B3F8483012B21BB29A4243DB7B691B7CA9
:100E2000022B16D07B69B3F844301BB2DB109BB2A7
:100E30001AB27B69B3F846301BB213447A6992F850
:100E40004A2011465A4A525C93409AB27B69A3F8F1
:100E500048207B690022DA867B69B3F85C207B69D5
:100E6000B3F85230934228BF13467B817B895B08DD
:100E70009AB27B69A3F854207B69B3F854207B694C
:100E80001B8F9A4206D27B691B8F5B009AB27B69EB
:100E9000A3F854207B691A8F7B69A3F852207869E4
:100EA00008F0B8FD7B691B7C062B09D13D4B1A6805
:100EB0007B691B6BD31A282B02D9FB7B0133FB7395
:100EC0007B691B8903F00803002B41D07B691B7CE5
:100ED000042B03D07B691B7C072B39D1314B1A685B
:100EE0007B691B6BD21A7B69D3F8943003F52423FA
:100EF00003F6B8432F49A1FB03135B099A4206D9B5
:100F0000FB7B0133FB73BB7B0133BB7320E0254BC1
:100F10001A687B691B6BD21A7B69D3F894107B69C2
:100F200093F89D301846244B03FB00F30B442149F2
:100F3000A1FB03135B099A420AD9786908F032FED3
:100F40007B6993F89D300133DAB27B6983F89D2089
:100F50007B691B7C032B09D1124B1A687B691B6BC5
:100F6000D31A282B02D9FB7B0133FB737B691B7CD3
:100F7000092B09D10B4B1A687B691B6BD31AF02B19
:100F800002D9FB7B0133FB73FB7B002B46D07869D6
:100F900000F0D6FA3B69002B10D07B69DA683B6918
:100FA000DA600FE0707D00206C7D002020A5000835
:100FB00010A50008D34D6210F82401007B69DB689E
:100FC0004E4A13607B69D3F89030002B08D07B69C0
:100FD000D3F890307A69526910466FF0040198474F
:100FE000BB7B002B10D07B69986D7B69596A7D694A
:100FF0007B691C1D7B691A8B7B691B8C009201939A
:101000002A46234608F08EFC7B69DB687B60022061
:10101000796902F035F87B687B6131E07B6993F890
:1010200034300133DAB27B6983F834207B6993F87A
:1010300034207B6993F835309A421CD37B690022B7
:1010400083F834207B69D3F88C30002B0AD07B697D
:10105000D3F88C307A69526910467969984703460B
:101060007B7301E000237B7397F90D30002B02D1D5
:10107000786908F04BFA7B693B617B69DB687B61CF
:101080007B69002B7FF46AAE00233B611C4B1B681D
:101090007B612CE00023FB731A4B1A687B691B6B86
:1010A000D31AF02B02D9FB7B0133FB73FB7B002BA4
:1010B00018D0786900F044FA3B69002B04D07B69B2
:1010C000DA683B69DA6003E07B69DB680C4A13602D
:1010D0007B69DB687B600220796901F0D1FF7B6866
:1010E0007B6104E07B693B617B69DB687B617B69D9
:1010F000002BCFD11837BD46B0BD00BF6C7D00209E
:10110000807D0020707D002090B583B000AF294B1A
:101110001B687B6047E07B68DB6F002B24D07B681B
:10112000D3F88430002B0ED07B68D3F884407B68E2
:101130005A697B68DB6F104679681A460023A0471E
:101140000346FB7009E07B68DB6F002079681A4674
:10115000002300F079F80346FB7097F90330002B69
:1011600002D17B680022DA677B6893F8223003F0B3
:101170000103002B14D07B6893F8223043F0020364
:10118000DAB27B6883F82220786808F0BFF97B68C0
:1011900093F8223023F00303DAB27B6883F822202D
:1011A0007B68DB687B607B68002BB4D10C37BD4665
:1011B00090BD00BF6C7D002080B584B000AF78602A
:1011C0000023FB730CE07B681B68BB60786800F051
:1011D0000FF803461A46FB7B1344FB73BB687B6026
:1011E0007B68002BEFD1FB7B18461037BD4680BDD6
:1011F00080B584B000AF78600023FB737B68002B60
:101200000ED07B685B68002B06D07B685B68184655
:1012100005F0A6FF0346FB730420796801F030FF58
:10122000FB7B18461037BD4680BD00BF80B483B03D
:1012300000AF78600B46FB707B68FA785A740C3705
:10124000BD465DF8047B704780B584B000AFF860A0
:10125000B9607A60FB707B68002B09D07B681B89C2
:10126000B8681946FFF7E4FC786805F079FF08E0F4
:1012700097F90330002B04D1B868FFF721FA034631
:1012800000E000235BB218461037BD4680BD00BFAA
:1012900080B586B000AF0346FB717F23FB7200234D
:1012A000FB6000233B61184B1B687B611FE07B697F
:1012B0005B7CFA799A4217D37B695B7CFA7A9A4213
:1012C00012D3124B1A687B691B6BD21AFB689A42C5
:1012D0000AD30E4B1A687B691B6BD31AFB607B69C0
:1012E0003B617B695B7CFB727B69DB687B617B6953
:1012F000002BDCD13B69002B03D038690121FFF7BB
:1013000091FA1837BD4680BD6C7D0020707D0020AD
:1013100080B584B000AF00237B600023BB60124B1C
:101320001B68FB6012E0114B1A68FB681B6BD21A3A
:101330007B689A4207D30D4B1A68FB681B6BD31A64
:101340007B60FB68BB60FB68DB68FB60FB68002BB5
:10135000E9D1BB68002B03D0B8680121FFF762FA1E
:101360001037BD4680BD00BF807D0020707D00200D
:1013700080B584B000AF0346FB71022001F05EFE31
:10138000F860FB68002B10D1FFF7C2FF022001F0CC
:1013900055FEF860FB68002B07D1FB791846FFF774
:1013A00077FF022001F04AFEF860FB68002B59D05D
:1013B000F8680021A02208F0C3FDFB6840225A749F
:1013C000FB6840F66832A3F86E20FB680022A3F8A1
:1013D0007020FB6840F668321A85FB6840F6683278
:1013E0005A85FB6800229A72FB68FF22DA72FB685A
:1013F0004FF406721A87FB680622A3F84820FB68A0
:101400000022A3F84420FB680622A3F84620FB68CC
:101410004FF6FF72DA86FB680122A3F8522000F033
:1014200015F9B860FB68BA685A66FB68BA689A65CD
:10143000FB68BA68DA64FB68BA689A660C4B1A688B
:10144000FB681A63FB68002283F83420FB68094AB2
:10145000C3F88420FB68084AC3F89420FB68002284
:1014600083F89D20FB6818461037BD4680BD00BF3D
:10147000707D00204912000800DD6D0080B500AFCE
:101480004020FFF775FF0346184680BD80B483B047
:1014900000AF786039607B683A685A610C37BD46A6
:1014A0005DF8047B704700BF80B483B000AF786004
:1014B00039607B683A68C3F884200C37BD465DF814
:1014C000047B704780B483B000AF786039607B687C
:1014D0003A68C3F880200C37BD465DF8047B70473E
:1014E00080B483B000AF786039607B683A68C3F835
:1014F00090200C37BD465DF8047B704780B483B004
:1015000000AF786039607B683A68DA610C37BD46B5
:101510005DF8047B704700BF80B485B000AFF86011
:10152000B9601346FB71FB68BA68C3F88C20FB688E
:10153000FA7983F835201437BD465DF8047B70478F
:1015400080B582B000AF78607B681B7C002B24D014
:101550007B681B7C0A2B20D07B681B7C012B1CD05A
:101560007B68DB6F002B07D07B68DB6F184605F0CC
:10157000F7FD7B680022DA677B685B6F1846FFF730
:101580001BFE7B689B6F1846FFF716FE7B680022E8
:101590005A677B685A6F7B689A670837BD4680BD7B
:1015A00080B582B000AF786039607B681A683B68AC
:1015B0009A4205D17B681B68DA687B681A6019E07B
:1015C0007B681B68204A136010E01F4B1B68DA68B9
:1015D0003B689A4205D11C4B1B683A68D268DA60B6
:1015E00008E0194B1B68DB68174A1360164B1B6831
:1015F000002BEAD13B680022DA603868FFF7A0FFD1
:101600003B681B7C0A2B16D03B681B7C012B12D03D
:101610003B6893F8223003F00103002B0BD03B68AA
:1016200093F8223043F00203DAB23B6883F82220B9
:10163000386807F06BFF3B681B7C012B3B6800227E
:101640001A740837BD4680BD787D002080B400AF95
:10165000064B1A68064B1B681344044A1360034B7D
:101660001B681846BD465DF8047B704730000020BB
:10167000707D002080B584B000AF03463960FB80E8
:10168000386806F049FCF860FB68002B0DD0FB6859
:101690001B8D002B09D0FB681B8D283B7B817A8931
:1016A000FB88934228BF1346FB80FB8818461037FF
:1016B000BD4680BDB0B588B002AF786039607B6848
:1016C0005B68A04A13607B685C689E4B1B681B8844
:1016D0009BB2184605F0F8FE03461B0A9BB203F0C6
:1016E0000F039B002344984A1360964B1B681B888A
:1016F0009BB2184605F0E8FE03461B0A9BB203F0B6
:101700000F039BB29B009BB25B429BB29BB21BB28E
:101710007868194605F0B4FC0346002B03D17B68BA
:101720001B89132B03D8786805F01AFD9DE2854BC1
:101730001B6810331846396803F0CAF90346002BBA
:101740000FD1804B1B681C694FF0704005F0E4FE20
:1017500003461C404FF0604005F0DEFE03469C420D
:1017600003D1786805F0FCFC7FE2774B1B689B890E
:101770009BB2184605F0A8FE03461B0B9BB2BB723A
:10178000BB7A9BB21A469203D31A9B009BB29BB2C0
:101790001BB27868194605F073FC0346002B03D092
:1017A000786805F0DDFC60E2674B1C68664B1B68DF
:1017B0001B889BB2184605F087FE03462380624BC8
:1017C0001C68614B1B685B889BB2184605F07CFE69
:1017D000034663805C4B1C685B4B1B685B68184668
:1017E00005F09AFE034663606368584A1360564BDF
:1017F0001C68554B1B689B68184605F08DFE034618
:10180000A360A368524A13604F4B1C684E4B1B6881
:10181000DB899BB2184605F057FE0346E3814A4B2D
:101820001B689B899BB2184605F04EFE0346DBB24F
:1018300003F03F03DAB2474B1A707B681A89454BB5
:101840001B7803F00303002B14BF01230023DBB23A
:101850009BB213449AB2404B1A8000233B613F4B2A
:101860001B687B6132E07B691A8C374B1B681B88D5
:101870009BB29A4225D17B691A8B334B1B685B88DC
:101880009BB29A421DD17B695A682E4B1B68DB685C
:101890009A4216D17B691A682A4B1B681B699A42C7
:1018A0000FD13B69002B0BD07B69DA683B69DA60AA
:1018B0002A4B1A687B69DA60284A7B69136008E062
:1018C00007E07B693B617B69DB687B617B69002B9F
:1018D000C9D17B69002B7AD1214B1B687B6127E042
:1018E0007B691A8C184B1B681B889BB29A421CD1CF
:1018F0007B691A8B144B1B685B889BB29A4214D18C
:101900007B695A680F4B1B68DB689A420DD17B6973
:101910001A680C4B1B681B699A4206D1786900F063
:1019200083FA786805F01CFC9FE17B69DB687B61CA
:101930007B69002BD4D100233B610A4B1B68FB6001
:1019400042E000BFEC280020E8280020F02800201A
:10195000F4280020F8280020FA2800206C7D0020C0
:10196000807D0020747D0020FB68002B0AD0FB687E
:101970001B68002B06D0FB681A689C4B1B681B6910
:101980009A421CD1FB681A8B994B1B685B889BB2EF
:101990009A4214D13B69002B0AD0FB68DA683B6994
:1019A000DA60944B1A68FB68DA60924AFB6813604D
:1019B000F86800F067F9786805F0D2FB55E1FB683C
:1019C0003B61FB68DB68FB60FB68002BCCD17B696B
:1019D000002B00F01D81884B00221A607B681A8959
:1019E000854B9A817B685B68834A9360824A7B68F7
:1019F00053607F4B1B68804A1361804B00221A6042
:101A00007F4B00221A707B69DB6F002B29D07B692A
:101A1000D3F88430002B0ED07B69D3F884407B69E7
:101A20005A697B69DB6F104679691A460023A04723
:101A30000346FB7209E07B69DB6F002079691A4677
:101A40000023FFF701FC0346FB7297F90B30002BD4
:101A500003D17B690022DA6703E0786805F080FB38
:101A600003E1684A7B691360786900F051FA034624
:101A7000FB7297F90B3013F1050F00F0A780604B54
:101A80001B7803F00803002B16D07B69D3F8903045
:101A9000002B08D07B69D3F890307A6952691046E0
:101AA0006FF00501984758487969FFF779FD0220E2
:101AB000796901F0E5FA89E0514B1B7803F01003D6
:101AC000002B08D050487969FFF76AFD0220796938
:101AD00001F0D6FA7AE00023FB727B69B3F86C3030
:101AE000002B14D07B69D3F88030002B0DD07B699C
:101AF000D3F880307A6951697A69B2F86C20084667
:101B0000796998470346FB7201E00023FB723B4B67
:101B10001B68002B34D03D4B1B7803F00803002BCF
:101B200008D0364B1B68354A1268527B42F00102DE
:101B3000D2B25A737B69D3F88430002B0ED07B6904
:101B4000D3F884407B695A692C4B1B68104679692D
:101B50001A460023A0470346FB7209E0274B1B6887
:101B6000002079691A460023FFF76EFB0346FB72DB
:101B700097F90B30002B03D0204B1A687B69DA678A
:101B80001F4B1B7803F02003002B19D07B69D3F87F
:101B90008430002B0CD07B69D3F884407B695B696F
:101BA0001846796900220023A0470346FB7207E02C
:101BB0000020796900220023FFF746FB0346FB72F1
:101BC000104B00221A60786907F0A0FC0D4B002230
:101BD0001A60094B5B68002B47D0074B5B681846BF
:101BE00005F0BEFA044B00225A603EE0EC280020CB
:101BF000E8280020747D0020D4280020002900203F
:101C0000FC280020847D00206C7D0020F828002026
:101C1000174B1B689B899BB2184605F055FC034681
:101C200003F00403002B1DD1124B1868124B1B88C4
:101C30001A46124B1B68D118114B1B6803F1100593
:101C40000F4B1B6803F10C04094B1B685B889AB2AD
:101C5000074B1B681B889BB2009201932A462346C0
:101C600007F060FE786805F07BFA1837BD46B0BD16
:101C7000E8280020F4280020FA280020F02800207E
:101C8000EC280020B0B586B002AF78605F4B1B78BF
:101C900003F01003002B1FD05D4B1B68581C5D4BDD
:101CA0001B881A465C4B1B68D1185C4B1B6803F100
:101CB00010055A4B1B6803F10C04594B1B685B88D9
:101CC0009AB2574B1B681B889BB2009201932A461D
:101CD000234607F027FE92E04C4B1B7803F00203EB
:101CE000002B00F08C807B685B7C1846FFF740FB84
:101CF000F860FB68002B01D1FF2381E0474B1B6894
:101D00001033002B03D0454B1B681B6900E00023F8
:101D1000FA6813607B681A8BFB681A833F4B1B6859
:101D20000C33002B03D03D4B1B68DB6800E0002325
:101D3000FA6853603A4B1B681B889AB2FB681A8496
:101D4000FB6803221A74344B1B685A1CFB685A62E6
:101D5000FB685A6AFB68DA62314B1B68DB899AB20E
:101D6000FB68A3F85C20FB68B3F85C20FB68A3F871
:101D70005420294B1B685A1EFB681A667B685A69F7
:101D8000FB685A617B68DA69FB68DA617B681A89EB
:101D900040F2991313409AB2FB681A81214B1A68DA
:101DA000FB68DA601F4AFB681360F86801F078F896
:101DB000FB681A8FFB68043310461946FFF75AFC7C
:101DC00003461A46FB681A870023009301230193F8
:101DD000F86800210022122307F088F80346FB72FE
:101DE00097F90B30002B05D0F8680021FEF71AFD9B
:101DF000FB7A05E0F86807F089FB034600E0002362
:101E00005BB218461037BD46B0BD00BFF8280020B1
:101E1000F4280020FA280020F0280020EC280020D8
:101E2000E82800206C7D0020B0B584B002AF786057
:101E3000304B1B7803F00403002B01D0002353E048
:101E40002C4B1B7803F00203002B30D02A4B1A686E
:101E50007B685B6AD31A002B33DB274B1A687B68DD
:101E60005B6A7968098D0B44D31A002B29DC234B5C
:101E70001868234B1B881A461F4B1B68D118214B2F
:101E80001B6803F110051F4B1B6803F10C041E4B6C
:101E90001B685B889AB21C4B1B681B889BB2009224
:101EA00001932A46234607F03DFD00231CE0114B19
:101EB0001B7803F00103002B03D0144B1A687B68D6
:101EC0001A630F4B1B88002B0DD07B6893F82230D0
:101ED00043F00203DAB27B6883F82220786807F0C7
:101EE00015FB034600E000235BB218460837BD46E9
:101EF000B0BD00BFF8280020F0280020F428002002
:101F0000FA280020EC280020E8280020707D00201E
:101F1000B0B586B002AF78600023FB730023BB73BB
:101F2000A54B1B7803F00403002B36D07B681B7C89
:101F3000022B08D17B689A6DA04B1B689A4215D181
:101F40000123FB7312E09E4B1A687B685B6AD31A0D
:101F5000002B0BDB9A4B1A687B685B6A7968098DEA
:101F60000B44D31A002B01DC0123FB73FB7B002BFA
:101F700011D0944B1B7843F00803DAB2914B1A70DE
:101F80007B6893F8223023F00103DAB27B6883F890
:101F90002220FA2310E300230EE3874B1B7803F083
:101FA0000203002B15D07B681B7C022B11D07B68B1
:101FB0001B7C032B0DD07B6893F8223043F0020387
:101FC000DAB27B6883F82220786807F09FFA002352
:101FD000F2E27D4B1A687B681A637B68002283F803
:101FE0009D20786800F05CFF7B681B7C023B072B20
:101FF00000F2E08201A252F823F000BF1D20000889
:10200000D92100081523000849230008612400088D
:1020100015230008F924000885250008664B1B7865
:1020200003F01003002B00F0A080634B1B7803F03B
:102030000203002B00F099807B689B6F1B695B6833
:10204000184605F069FA03465A1C5C4B1B689A4215
:1020500040F08B807B68B3F86E3001339AB27B68B6
:10206000A3F86E20564B1B685A1C7B685A627B682B
:102070005A6A7B68DA62514B1A687B68DA64534BA0
:102080001B68DB899AB27B68A3F85C204C4B1B6809
:102090005A1E7B681A667B6804221A747B681A8F42
:1020A0007B68043310461946FFF7E4FA03461A46E4
:1020B0007B681A877B681B8F1A46920013445B006B
:1020C0009AB27B68A3F854207B68B3F85230012B96
:1020D00004D17B681B8F5B009BB201E07B681B8F88
:1020E0007A68A2F852307B68B3F87030013B9AB23C
:1020F0007B68A3F870207B689B6FBB60BB681A6825
:102100007B689A677B689B6F002B04D17B684FF6D6
:10211000FF72DA8606E07B680022DA867B6800229E
:1021200083F84A20B868FFF763F87B68D3F88830F3
:10213000002B0BD07B68D3F888307A685269104640
:102140007968002298470346BB7301E00023BB7304
:102150007B6893F8223043F00203DAB27B6883F89D
:102160002220786807F0D2F924E0134B1B7803F0A3
:102170001003002B1ED0114B1868154B1B881A46F4
:102180000F4B1B68D118134B1B6803F11005114B43
:102190001B6803F10C040D4B1B685B889AB20B4B58
:1021A0001B681B889BB2009201932A46234607F0C6
:1021B000B9FB00E2FFE100BFF8280020F42800206E
:1021C000F0280020FC280020707D0020E828002056
:1021D000FA280020EC280020974B1B7803F010030E
:1021E000002B00F08580954B1A687B68DB6CD31A56
:1021F000013B002B5CDB914B1A687B689B6DD31A0B
:10220000002B55DC7B6804221A747B68DB69002B89
:102210000AD07B68DB697A685269104679680022C7
:1022200098470346BB7301E00023BB7397F90E3058
:10223000002B05D078680121FEF7F4FAFB23BBE1FF
:102240007B68B3F85230BB81786800F0C7F97B68CF
:10225000B3F86C30002B07D07B68B3F86C30013BCF
:102260009AB27B68A3F86C20BB89012B04D17B68F0
:102270001B8F5B009BB201E07B681B8F7A68A2F822
:1022800052306F4B1B7803F02003002B0FD07B687C
:1022900093F8223043F00203DAB27B6883F82220FD
:1022A000786807F033F97B6807221A741FE01EE094
:1022B000624B1868634B1B881A46634B1B68D11826
:1022C000624B1B6803F11005604B1B6803F10C04A3
:1022D0005F4B1B685B889AB25D4B1B681B889BB287
:1022E000009201932A46234607F01CFB11E010E000
:1022F000514B1B7803F00203002B0AD07B685B6A0A
:102300005A1E514B1B689A4203D1786807F0B2FB02
:1023100051E150E1786800F061F9494B1B7803F016
:102320002003002B0FD07B6893F8223043F0020388
:10233000DAB27B6883F82220786807F0E7F87B68D8
:1023400007221A7437E136E1786800F047F93C4B10
:102350001B7803F02003002B5DD0374B1B7803F074
:102360001003002B47D07B689A6D344B1B689A4250
:1023700041D17B6893F8223043F00203DAB27B68E4
:1023800083F82220786807F0C1F87868FFF7D8F85A
:10239000304B1A687B689A4205D12E4B1B68DB686C
:1023A0002C4A136019E02B4B1B682B4A136010E07A
:1023B000294B1B68DA687B689A4205D1264B1B685B
:1023C0007A68D268DA6008E0234B1B68DB68224A2F
:1023D0001360214B1B68002BEAD17B680022DA6076
:1023E0007B680A221A741D4B1A687B68DA601B4AE4
:1023F0007B6813601FE07B6893F8223043F0020390
:10240000DAB27B6883F82220786807F07FF87B686F
:1024100008221A740FE0084B1B7803F01003002BFE
:1024200009D07B689A6D054B1B689A4203D17B6883
:1024300006221A74BFE0BEE0F8280020F42800202D
:10244000FC280020FA280020F0280020EC2800209A
:10245000E82800206C7D0020787D0020807D002011
:10246000786800F0BBF8574B1B7803F02003002B73
:1024700041D07B6893F8223043F00203DAB27B68E4
:1024800083F82220786807F041F87868FFF758F859
:102490004D4B1A687B689A4205D14B4B1B68DB6831
:1024A000494A136019E0484B1B68484A136010E022
:1024B000464B1B68DA687B689A4205D1434B1B6820
:1024C0007A68D268DA6008E0404B1B68DB683F4AF4
:1024D00013603E4B1B68002BEAD17B680022DA6058
:1024E0007B680A221A743A4B1A687B68DA60384AA9
:1024F0007B6813605FE05EE0786800F06FF8354B52
:102500001B7803F01003002B3BD07B689A6D324B95
:102510001B689A4235D17868FFF712F82A4B1A687F
:102520007B689A4205D1284B1B68DB68264A1360FA
:1025300019E0254B1B68254A136010E0234B1B68EC
:10254000DA687B689A4205D1204B1B687A68D268AA
:10255000DA6008E01D4B1B68DB681C4A13601B4BEC
:102560001B68002BEAD17B680022DA607B680A22B4
:102570001A74174B1A687B68DA60154A7B68136017
:1025800019E018E0786800F029F8124B1B7803F086
:102590001003002B0DD07B689A6D0F4B1B689A427D
:1025A00007D1084B1B7843F01003DAB2054B1A70C1
:1025B00001E000E000BF00235BB218461037BD46C3
:1025C000B0BD00BFFC2800206C7D0020787D00207D
:1025D000807D0020F8280020F4280020F0B58BB082
:1025E00000AF78600023BB61A54B1B7803F010039C
:1025F000002B00F098827B68B3F85C301A467B6849
:102600005B6E13447B617B681A6E9E4B1B68D31A0A
:10261000002B1BDB7B681A6E9A4B1B689A4206D113
:102620007B685A6E984B1B68D31A002B0EDB7B68B5
:102630005A6E954B1B689A4225D1944B1B68DB89D7
:102640009AB27B68B3F85C309A421CD98F4B1B68F6
:10265000DB899AB27B68A3F85C208A4B1A687B6896
:102660001A66894B1A687B685A667B68B3F85C30D7
:10267000002B08D07B6893F89C30002B03D07B683C
:10268000002283F89C20804B1A687B68DB6CD31A8D
:10269000002B5BDC7B680022A3F86C207C4B1B8842
:1026A000002B4AD17B685B6E7A68B2F85C201A44D2
:1026B0007B699A4241D17B68DB8E1BB2002B3CDBED
:1026C0007B68DA6C704B1B689A4236D10123BB6180
:1026D0007B6893F8503001337A6892F85020934227
:1026E00007DD7B6893F850300133DAB27B6883F8FA
:1026F00050207B6893F85030032B16D97B68B3F8D1
:1027000052207B681B8F13449AB27B68B3F8523017
:102710009A4212D97B68B3F852207B681B8F13440E
:102720009AB27B68A3F8522007E07B6893F8503098
:10273000032B02D1786807F0DFF9BB69002B40F06A
:1027400026817B68002283F8502062E14E4B1A6894
:102750007B68DB6CD31A013B002BC0F214814A4B1F
:102760001A687B689B6DD31A002B00F30C817B6881
:1027700093F8223003F00403002B0ED07B6893F80B
:10278000223023F00403DAB27B6883F822207B68CE
:10279000B3F854207B68A3F852207B68002283F8AA
:1027A0004A207B68B3F844301BB2DB109BB29AB26C
:1027B0007B68B3F846309BB213449BB29AB27B68F5
:1027C000A3F84820304B1B689AB27B68DB6C9BB245
:1027D000D31A9AB27B68A3F86C207B68B3F86E209A
:1027E0007B68B3F86C3013449AB27B68A3F86E2010
:1027F0007B68002283F85020234B1A687B68DA64D8
:102800007B681B7C032B3AD97B68B3F852207B682A
:10281000B3F854309A4216D27B68B3F852207B68E2
:102820001B8F13449AB27B68B3F852309A4226D970
:102830007B68B3F852207B681B8F13449AB27B6885
:10284000A3F8522067E07B68B3F852207B681B8FA7
:1028500019467B681B8F03FB01F37968B1F85210AE
:1028600093FBF1F39BB213447B827B68B3F8523045
:102870007A8A9A4203D97B687A8AA3F852204AE07E
:10288000F8280020F0280020F4280020E828002064
:10289000FA2800207B689B6FFB607B689B6F1A683F
:1028A0007B689A67FB685B68184604F0A9FC7B6844
:1028B000B3F86C30002B13D0FB681B699B899BB26B
:1028C000184604F001FE034603F00103002B07D075
:1028D0007B68B3F86C30013B9AB27B68A3F86C203C
:1028E000FB685B68184604F08BFC034619467B685E
:1028F000B3F870208BB2D31A9AB27B68A3F8702019
:10290000F868FEF775FC7B68B3F87030002B02D0D6
:102910007B689B6F002B7B689B6F002B22D07B68B2
:102920009B6F1B695B68184604F0F6FD04467B68E4
:102930009B6F9B891D467B689B6F1B699B899BB224
:10294000184604F0C1FD034603F00303002B14BF37
:1029500001230023DBB22B44E2189B4B1B68D31AE4
:10296000002B97DD7B689B6F002B04D17B684FF6B3
:10297000FF72DA8602E07B680022DA867B6800223A
:1029800083F8342003E07B680022A3F86C2040E049
:102990007B685B6FFB607B685B6F1A687B685A675C
:1029A000FB685B68184604F02BFC7B68B3F86C305E
:1029B000002B13D0FB681B699B899BB2184604F05F
:1029C00083FD034603F00103002B07D07B68B3F8B7
:1029D0006C30013B9AB27B68A3F86C20FB685B68A3
:1029E000184604F00DFC034619467B68B3F87020C6
:1029F0008BB2D31A9AB27B68A3F87020F868FEF7FE
:102A0000F7FB7B68B3F87030002B02D07B689B6FBC
:102A1000002B7B685B6F002B29D06B4B1C687B689D
:102A20005B6F1B695B68184604F076FD05467B68A2
:102A30005B6F9B891E467B685B6F1B699B899BB2A2
:102A4000184604F041FD034603F00303002B14BFB6
:102A500001230023DBB233442B44E31A002B06DBB3
:102A6000594B1A687B689B6DD31A002B90DD7B68ED
:102A7000DB6B002B57D07B681A6C534B1B68D31A47
:102A8000002B50DA514B1B689AB27B68DB6B9BB210
:102A9000D31A9BB2FB83FA8B7B68B3F844301BB22A
:102AA000DB109BB29BB2D31A9BB2FB837B68B3F85B
:102AB00044309AB2FB8B13449BB29AB27B68A3F862
:102AC0004420B7F91E30002B03DAFB8B5B429BB22C
:102AD000FB83FA8B7B68B3F846301BB29B109BB22A
:102AE0009BB2D31A9BB2FB837B68B3F846309AB291
:102AF000FB8B13449BB29AB27B68A3F846207B6899
:102B0000B3F844301BB2DB109BB29AB27B68B3F8C7
:102B100046309BB213449BB29AB27B68A3F848201C
:102B20007B680022DA632A4B1B88002B00F094811B
:102B30007B685A6A274B1B68D31A013B002B75DB55
:102B40007B685A6A224B1B881946224B1B680B4430
:102B5000D31A0133002B69DC7B685A6A1D4B1B6852
:102B6000D31A3B621C4B5B687B621B4B5B685B89C7
:102B70001A463B6A9A4231DA174B5B681A893B6AFC
:102B80009BB2D31A7B810EE07B6A5B891A463B6A53
:102B90009B1A3B627B6A7A891A817B6A00225A817E
:102BA0007B6A1B687B627B6A5B891A463B6A9A4236
:102BB000EADB3B6A9BB25B429BB29BB21BB2786A78
:102BC000194604F05DFA15E0F4280020707D00201D
:102BD000FA280020F0280020D4280020994B5A68B9
:102BE0003B6A9BB25B429BB29BB21BB2104619463A
:102BF00004F046FA7B6A5B68924A9360914B9A892B
:102C0000914B1B6899B27B685B6A9BB2CB1A9BB2F3
:102C100013449AB28B4B9A818A4B1B697A68526A29
:102C200089490A60884A12685A6012E0864B1A681D
:102C30007B685B6AD31A002B0BDA7B6893F822302F
:102C400043F00203DAB27B6883F82220786806F04A
:102C50005DFC7D4B1A687B685B6AD31A002BC0F25F
:102C6000EB80794B1A687B685B6A7968098D0B4445
:102C7000D31A0133002B00F3DF807B685A6A724B52
:102C80001B689A4240F0D4806E4B9C896D4B1B6947
:102C90009B899BB2184604F017FC034603F003031C
:102CA000002B14BF01230023DBB29BB223449AB252
:102CB000664B1A807B681A8D644B1B889A425ED2E1
:102CC000604B1B699B899BB2184604F0FDFB0346D1
:102CD00003F00103002B1ED05A4B1C69594B1B6992
:102CE0009B899DB24FF6C07004F0D8FB03462B4081
:102CF0009DB2544B1B699B899BB2184604F0E4FBC0
:102D0000034603F03E039BB2184604F0C7FB03469C
:102D10002B439BB2A3817B681A8D4A4B9A81494B06
:102D20001B699B899BB2184604F0CEFB034603F057
:102D30000203002B05D0434B9B89013B9AB2414BC8
:102D40009A81404B5A683F4B9B891046194604F0C4
:102D500033F93C4B9C893B4B1B699B899BB21846C2
:102D600004F0B2FB034603F00303002B14BF01235E
:102D70000023DBB29BB223449AB2344B1A80334B0C
:102D80001B881A46304B1B681A447B685A627B6862
:102D90001A8D2E4B1B88D31A9AB27B681A857868D5
:102DA000FDF704FF274B5B681B89002B06D0254BE2
:102DB0005B68274A1360234B00225A60214B1B6932
:102DC0009B899BB2184604F07FFB034603F0010386
:102DD000002B06D01F4B1B7843F02003DAB21D4BAB
:102DE0001A707B6893F8223003F00103002B15D092
:102DF0007B6893F8223023F00103DAB27B6883F812
:102E000022207B6893F8223043F00203DAB27B6819
:102E100083F82220786806F079FB11E07B6893F84C
:102E2000223043F00103DAB27B6883F8222007E006
:102E3000786806F035FB03E0786806F031FB29E09E
:102E400028E000BFD4280020F0280020FA28002025
:102E500000290020FC280020104B1A687B685B6A60
:102E6000D31A002B0ADB0D4B1A687B685B6A796802
:102E7000098D0B44D31A0133002B0BDD7B6893F8CB
:102E8000223043F00203DAB27B6883F822207868AC
:102E900006F03CFB2C37BD46F0BD00BFF0280020FB
:102EA00080B586B000AF78603D4B1B6814333B6142
:102EB0003B4B1B689B899BB2184604F005FB0346FD
:102EC0001B0B9BB2052B68D9354B1B689B899BB2AA
:102ED000184604F0F9FA03461B0B9BB2053B9BB264
:102EE0009B00FB810023FB8251E0FB8A3A6913447B
:102EF0001B787B737B7B012B04D0022B06D0002B2D
:102F00004AD033E0FB8A0133FB8240E0FB8A013385
:102F10003A6913441B78042B04D1FB8A1A1DFB89E0
:102F20009A4200DD39E0FB8A02333A6913441B7888
:102F30001B0299B2FB8A03333A6913441B789BB294
:102F40000A4613439BB27B817B8940F2B452934281
:102F500004D87B89002B01D07A8901E040F2B45279
:102F60007B681A87FB8A0433FB8210E0FB8A0133FB
:102F70003A6913441B78002B00D10EE0FB8A013321
:102F80003A6913441B789AB2FB8A1344FB82FA8A8B
:102F9000FB899A42A9D300E000BF1837BD4680BD27
:102FA000E828002080B483B000AF00237B8002E0DB
:102FB0007B8801337B807B88082BF9D91B4B03333B
:102FC00023F003037B6000237B8027E07B88184A83
:102FD000002142F8231000233B8015E07B88144A2F
:102FE00052F823207B681A607B8811497A6841F87F
:102FF00023207B880F4A32F813301A467B6813442B
:103000007B603B8801333B807B880B4A32F813306E
:103010003A889A42E2D37B8801337B807B88082BF5
:10302000D4D90C37BD465DF8047B704728290020B1
:103030000429002028A500083CA5000880B485B01C
:1030400000AF0346FB71FB79082B01D900230EE08A
:10305000FB790A4A52F82330FB60FB68002B05D04D
:10306000FB79FA681268054941F82320FB68184685
:103070001437BD465DF8047B704700BF042900206B
:1030800080B485B000AF03463960FB713B68002B0C
:1030900000D10CE03B68FB60FB79074A52F8232023
:1030A000FB681A60FB790449FA6841F82320143759
:1030B000BD465DF8047B70470429002080B584B0CC
:1030C00000AF78600123FB73FB7B002B10D07B6883
:1030D0005B6A1B7A002B03D0786800F07BF80AE06B
:1030E000786800F051F87B685B6A64221A7202E02B
:1030F000786800F06FF81037BD4680BD80B584B0A9
:1031000000AF786039607B6893F82F301A467B688F
:1031100093F830301B021A43184B1344184604F03E
:10312000E1F90346184604F0F7F9F8607B685B6A3A
:103130005B7A1A46FB681344FB60FB689BB243F062
:10314000294343F47E03FB60FB680D4A934203D896
:10315000FB6803F57E43FB60FB680A4A934203D990
:10316000FB68A3F57E43FB60F86804F0BBF90246F8
:103170003B681A601037BD4680BD00BF0001FEA944
:10318000FF00FEA9FFFEFEA990B587B004AF7860EE
:103190007B6803F12B027B6803F12B047B685B6A7D
:1031A00018467B685B6A19460090084B01930291B0
:1031B0000123039378681146054A234603F0F6FC81
:1031C000034618460C37BD4690BD00BF78A50008E1
:1031D00070A5000880B584B000AF78607B685B6A3A
:1031E000FB600023FB72786804F0CAFA0346002BE8
:1031F00002D0786804F0AAFA7B6800225A607B68E3
:1032000000229A607B680022DA60FB68002B11D1F3
:103210000A20FDF799F9F860FB68002B01D1FF2324
:1032200029E0F86800210A2206F08AFE7B68FA6825
:103230005A6211E0FB6800221A71FB680022DA80F2
:10324000FB6800225A71FB6818460021042206F030
:1032500077FEFB6800221A72FB6878681946FFF750
:103260004DFFFB685B7A0133DAB2FB685A7278680B
:1032700000F006F8FB7A5BB218461037BD4680BDF9
:1032800080B485B000AF78607B685B6AFB60FB68E8
:1032900001221A71FB6800225A717B6893F8303062
:1032A0001A067B6893F82E301B041A437B6893F848
:1032B0002D301B0213437A6892F82F2013437A684B
:1032C000526A002A03D07A68526A527A00E00022D9
:1032D00099180C4BA3FB0123DA0813469B001344F7
:1032E0005B00CA1A92B2FB68DA80FB685B7A0A2B31
:1032F00003D9FB684FF41672DA801437BD465DF8C7
:10330000047B7047CDCCCCCC80B586B000AF786064
:1033100039607B685B6A002B69D07B685B6A1B79CC
:10332000002B64D07B6893F82B303B727B6893F85A
:103330002C307B727B6893F82D30BB727B6893F8DE
:103340002E30FB727B6893F82F303B737B6893F8C9
:1033500030307B733A6807F114030E32106818603E
:103360003A6807F110031832106818607B685B6ACE
:103370001B79012B09D07B685B6A1B79022B21D159
:103380007B685B6A5B79002B1CD17A697B685B6A1E
:103390001B689A4211D03A697B685B6A1B689A4243
:1033A0000FD13B68083307F1080210461946062280
:1033B00006F0FAFC0346002B03D07868FFF70AFFFB
:1033C00015E014E07A697B685B6A1B689A420ED14B
:1033D0003B68083307F1080210461946062206F03A
:1033E000E3FC0346002B02D07868FFF767FE18372E
:1033F000BD4680BD80B586B000AF786039600023DF
:103400007B613B68002B7B685B685B68FB60FB68EB
:103410009B889BB2002B1ED17B685B683B61FB687D
:103420001A687B685A603B695A687B6808331046A3
:103430001946142206F0EAFC3869012105F052F918
:10344000386903F0DDFE03461A467B6913447B614D
:10345000386903F085FE7B685B683B6112E03B697D
:103460005B68FB603B69BB60FB681B683B61B868DD
:1034700003F0C6FE03461A467B6913447B61B868B5
:1034800003F06EFE3B69002BE9D17868396800F0E3
:10349000A5F8064B1A887B699BB2D31A9AB2034BE4
:1034A0001A807B6918461837BD4680BD9876002083
:1034B00080B588B000AF7860396000233B6100239D
:1034C000BB6100237B610023FB60264B1B68FB6113
:1034D0002CE0FB695A697B68DB689A420CD1FB6976
:1034E0009A697B681B699A4206D1FB699A897B6855
:1034F0009B889BB29A4210D0FB680133FB60BB698A
:10350000002B02D1FB69BB6107E0FB69DA7FBB6975
:10351000DB7F9A4201D8FB69BB61FB691B68002B0A
:1035200001D0FB697B61FB691B68FB61FB69002BB8
:10353000CFD1BB69002B08D0B8697969FFF75AFF72
:10354000B8603A69BB6813443B613A693B689A4288
:1035500002DAFB68012BB2DC3B6918462037BD4616
:1035600080BD00BF9476002080B584B000AF786045
:1035700039600520FFF762FDF860FB68002B10D171
:1035800078683968FFF794FF02463B689A4203DB8C
:103590000520FFF753FDF860FB68002B01D10023E5
:1035A00016E0F8680021202206F0CAFCFB6803221E
:1035B000DA77094B1A68FB681A60074AFB681360E0
:1035C000FB68083318467968142206F01FFCFB6874
:1035D00018461037BD4680BD9476002080B582B075
:1035E00000AF786039600A4B1A687B689A4204D150
:1035F0007B681B68064A136003E07B681A683B68B7
:103600001A6005207968FFF73BFD0837BD4680BD8D
:103610009476002090B58BB000AF786039600023BD
:103620003B620123BB613B685B687B617B695B88B4
:103630009BB2184603F048FF03461C467B691B8873
:103640009BB2184603F040FF03461B0A9BB203F0EF
:103650000F039BB21A469203D31A9B009BB22344DA
:103660007B827B69DB889BB2184603F02DFF034603
:10367000C3F30C039BB2DB003B823B685B687B625D
:103680007B6A00221A7000225A7000229A7000226F
:10369000DA707B6A3A8A9A803A8A7B8A13449AB2B1
:1036A0007B6ADA807B685B68FB614EE0FB695B6884
:1036B000FB607B6A9B889AB2FB689B889BB29A42AC
:1036C0001FD27B6AFA691A603B6A002B15D07B6AAD
:1036D0009B889AB23B6ADB889BB29A42C0F08B808F
:1036E0007B6ADB889AB2FB689B889BB29A4200F2A5
:1036F00082803B6A3A681A602AE07B683A685A60BE
:1037000026E07B6A9B889AB2FB689B889BB29A42B0
:1037100000D170E07B6A9B889AB2FB68DB889BB221
:103720009A4200D267E03B6A002B09D03B6ADB88F3
:103730009AB2FB689B889BB29A4201D00023BB617E
:10374000FB681B68FB61FB683B62FB69002BADD12A
:10375000FB69002B17D13B6A002B11D03B6ADB8839
:103760007B6A9B883B6A3A681A603B6ADB889AB23C
:103770007B6A9B889BB29A4205D00023BB6102E022
:103780007B683A685A607B689B7F03F00103002BDB
:103790002FD0BB69002B2AD07B685B685B689B8855
:1037A0009BB2002B02D00023BB6120E07B6A3B620E
:1037B0007B6A1B68FB6112E0FB695B687B623B6AAA
:1037C000DB889AB27B6A9B889BB29A4202D0002324
:1037D000BB6107E07B6A3B627B6A1B68FB61FB693C
:1037E000002BE9D1BB69002B01D07B6ADB88BB6968
:1037F00011E000230FE0386803F002FD034619468C
:10380000074B1A888BB2D31A9AB2054B1A803868C4
:1038100003F0A6FC002318462C37BD4690BD00BF20
:103820009876002090B58BB000AF78600023FB61E4
:103830007B685B68BB61BB691B889BB2184603F061
:1038400043FE03461B0A9BB203F00F039B00142B9D
:1038500000D00EE1BB69DB889BB2184603F034FE52
:103860000346C3F30C039BB2DB00FB82BB695B889E
:103870009BB2184603F028FE03461C46BB691B8812
:103880009BB2184603F020FE03461B0A9BB203F0CE
:103890000F039BB21A469203D31A9B009BB2234498
:1038A000BB82786803F0ACFC0346FB74754B1B8845
:1038B0001A46FB7C13440A2B10DDFB7CB8691946C1
:1038C000FFF7F6FD0346002B00F0D3806D4B1B88FD
:1038D0001A46FB7C13440A2B00F3CB806A4B1B680F
:1038E0003B6218E03B6A5A69BB69DB689A420DD1BA
:1038F0003B6A9A69BB691B699A4207D13B6A9A89FC
:10390000BB699B889BB29A4200D107E03B6AFB618E
:103910003B6A1B683B623B6A002BE3D13B6A002B8E
:1039200009D1FB7CB8691946FFF71EFE38623B6A75
:10393000002B1CD19DE0BB69DB889BB2184603F0CD
:10394000C3FD0346C3F30C03002B10D13B6ADB8994
:10395000184603F0B9FD0346C3F30C03002B06D051
:103960003B6A08331846B969142206F04FFAFB7C0B
:103970009AB2444B1B8813449AB2424B1A80BB69DB
:10398000DB889BB2184603F09FFD034603F4005307
:10399000002B0CD13B6A9B7F43F00103DAB23B6AF8
:1039A0009A77FA8ABB8A13449AB23B6A9A83386A36
:1039B0007968FFF72FFE0346002B58D03B6A9B8B9C
:1039C00014339AB23B6A9A833B6A5B685B681B68F4
:1039D0007B623B6A5B685B68BB613B6A0833B869C2
:1039E0001946142206F012FA3B6A9B8B184603F024
:1039F00055FD03461A46BB695A80BB6900229A717D
:103A00000022DA71BB6900229A720022DA72B86968
:103A1000142101F0E9F803461A46BB695A813B6A52
:103A20005B687B600EE07B6A5B68FB60786A6FF0C6
:103A3000130103F025FB7868796A03F00BFCFB683F
:103A40001B687B627B6A002BEDD1386AF969FFF74E
:103A5000C5FD786803F0D4FB03461946094B1A8864
:103A60008BB2D31A9AB2074B1A807B6805E0002309
:103A700003E0786803F074FB002318462C37BD463A
:103A800090BD00BF987600209476002080B58CB061
:103A900000AFF860B9607A60BB681B8DFB841423AB
:103AA0007B8502200021022203F08CF938623B6AF8
:103AB000002B01D1FF23B4E03B6AFA8C5A813B6AA8
:103AC0005A893B6A1A81594B033323F003031A4680
:103AD0003B6A5A603B6A5B68FB61FB685B68F8693C
:103AE0001946142206F092F9FB69DB889BB218464E
:103AF00003F0EAFC03463B853B8DC3F30C03BB8517
:103B00003B8D03F400537B83FB681B89143BFB85CF
:103B1000FB8C143B002B00DA0733DB103B8379E08E
:103B2000FA8DFB8C143B9A42D4BF01230023DBB2F5
:103B3000FB82BB8DC3F30C039AB27B8B13433B8593
:103B4000FB8A002B03D13B8D43F400533B85FB8A5A
:103B5000002B03D13B8BDB009BB200E0FB8DBB82D3
:103B6000FB6903F11401BA8A7B8DF86803F030FC1D
:103B700003461A467B8D13447B853B8D184603F024
:103B80008DFC03461A46FB69DA80BB8A14339BB26C
:103B9000184603F083FC03461A46FB695A80FB690A
:103BA00000229A720022DA72F869142101F01CF8DE
:103BB00003461A46FB695A81FB8A002B06D0FB8D0F
:103BC00014339BB2386A194603F0F6F9022000213B
:103BD000002203F0F7F838613B69002B0DD03869FB
:103BE000396A03F065FBBB685B69B86839697A6854
:103BF0009847386903F0B4FA04E0386A03F0B0FA81
:103C0000FF230EE0FA8DBB8AD31AFB85BA8D3B8B5E
:103C10001344BB85FB8D002B82D1386A03F0A0FAD8
:103C200000235BB218463037BD4680BD9C7600202D
:103C300080B582B000AF0F4B7B600F4B3B6007E05D
:103C40003B681A1D3A607A68111D796012681A6023
:103C50003B680A4A9342F3D309480A494FF00002ED
:103C60008842B8BF40F8042BFADB01F01BF8083794
:103C7000BD4680BDA8A5000800000020AC000020C3
:103C8000AC000020C0BA002080B400AFFEE700BF47
:103C900080B584B000AF0023FB7342E0FA7B244977
:103CA00013469B0013449B000B4408335B68184683
:103CB000012101F007FBFA7B1D4913469B001344C9
:103CC0009B000B4408331B887B6001233B7200235D
:103CD000BB720123FB7202237B72FA7B14491346E9
:103CE0009B0013449B000B445A683B1D1046194629
:103CF00003F05AFDFA7B0E4913469B0013449B00C8
:103D00000B4410331B78002B04D1FB7B184600F0CA
:103D100011F803E0FB7B184600F02AF8FB7B013327
:103D2000FB73FB7B032BB9D91037BD4680BD00BFA9
:103D30003400002080B483B000AF0346FB71FA79F1
:103D40000A4913469B0013449B000B445968FA79B7
:103D5000064813469B0013449B00034408331B880A
:103D60004B830C37BD465DF8047B70473400002060
:103D700080B483B000AF0346FB71FA790A49134659
:103D80009B0013449B000B445968FA79064813467C
:103D90009B0013449B00034408331B880B830C37A0
:103DA000BD465DF8047B70473400002090B482B0BB
:103DB00000AF0346FB71FA790F4913469B00134489
:103DC0009B000B445968FA790B4813469B00134437
:103DD0009B0003445B685869FA79074C13469B00C3
:103DE00013449B00234408331B8843404B6108372E
:103DF000BD4690BC704700BF3400002080B485B041
:103E000000AF78600023FB607B68FB6002E0FB682A
:103E1000013BFB60FB68002BF9D11437BD465DF810
:103E2000047B704780B500AF4FF00070012101F0B6
:103E300085FA4FF00070002101F080FA80BD00BFCC
:103E400080B483B000AF78607B6801221A607B6821
:103E500000225A607B6800229A607B680022DA6048
:103E60007B6800221A617B684FF480425A617B684C
:103E700000229A617B680022DA617B684FF400625D
:103E80001A627B6800225A627B6800229A627B6811
:103E90000022DA627B6800221A637B6800225A6380
:103EA0007B6800229A637B680022DA637B68402289
:103EB0001A647B6820225A647B6800229A647B68BB
:103EC0000022DA647B6800221A657B6800225A654A
:103ED0007B6800229A657B680022DA657B68002295
:103EE0001A667B6880225A667B6800229A667B6825
:103EF0000022DA667B6800221A677B6800225A6714
:103F00007B6800229A677B680022DA677B684FF043
:103F10008062C3F880207B684FF00072C3F8842071
:103F20007B680022C3F888207B684FF40012C3F836
:103F30008C207B680022C3F890207B680022C3F8A5
:103F400094207B680022C3F898207B680022C3F885
:103F50009C207B680022C3F8A0207B684FF0007291
:103F6000C3F8A4207B684FF48032C3F8A8207B6894
:103F70004FF48002C3F8AC207B684FF40052C3F8C2
:103F8000B0207B680022C3F8B4207B680022C3F80D
:103F9000B8200C37BD465DF8047B704780B58AB009
:103FA00000AF78600B467B8000233B6200237B627E
:103FB000684BFB610023BB60674B1B697B627B6ABC
:103FC00023F01C037B6207F10C03184601F0D0F8C4
:103FD0003B69FB61FB69614A934208D9FB69604A0E
:103FE000934204D87B6A43F008037B6226E0FB69B6
:103FF0005B4A934208D9FB695A4A934204D87B6AC8
:1040000043F00C037B6219E0FB69564A934204D9E2
:10401000FB69554A934200D810E0FB69524A93422B
:1040200008D9FB69514A934204D87B6A43F00403E0
:104030007B6203E07B6A43F010037B62464A7B6A43
:1040400013617B88184600214FF4004200F0EEFC1B
:104050000346002B01D100236EE14548FFF7CEFE59
:104060007B681B68002B5FD0BB680133BB607B881B
:104070001846012100F08AFC034603F00403002BDC
:1040800003D1BB683B4A9342EED9BB683A4A93429C
:1040900001D1002350E10023BB607B88184600213A
:1040A0004FF4805200F0C2FC0346002B01D10023E4
:1040B00042E1BB680133BB607B881846012100F0F8
:1040C00065FC034603F02003002B03D1BB68294A9B
:1040D0009342EED9BB68284A934201D100232BE1D9
:1040E0000023BB607B881846102100F04FFC03467C
:1040F0003B623B6A03F00403002B04D07B684FF45F
:1041000000621A6202E07B6800221A623B6A03F0D6
:104110000203002B03D07B6800225A6132E07B68E7
:104120004FF480425A612DE07B681B6ADB089AB22B
:104130007B685B695B089BB213439BB27A8810462D
:1041400000211A4600F072FC0346002B16D1002312
:10415000F2E000BF0087930300800240FF2C310192
:10416000BF0E1602FF869303FFE0F5057FD1F0082E
:10417000FFFF0F00FEFF0400FFFF04006FF07F4011
:10418000FFF73CFE6E4B1B687B627A6A6D4B1340F7
:104190007B627B685A687B689B681A437B68DB6834
:1041A0001A437B681B691A437B685B691A437B6807
:1041B0009B691A437B68DB691A437B681B6A1A4355
:1041C0007B685B6A1A437B689B6A1A437B68DB6A7D
:1041D0001A437B681B6B1A437B685B6B13437A6AD9
:1041E00013437B62564A7B6A136055497B689A6B1E
:1041F0007B68DB6B1A437B681B6C1A437B685B6CC8
:104200001A437B689B6C1A437B68DB6C1A437B68A0
:104210001B6D1A437B685B6D13434B60484A7B6898
:104220009B6D9360464A7B68DB6DD360444B9B6912
:104230007B627A6A4FF6417313407B627B681B6E28
:104240001A047B685B6E1A437B689B6E1A437B681B
:10425000DB6E1A437B681B6F1A437B685B6F1343EB
:104260007A6A13437B62364A7B6A936134497B687E
:104270009A6F7B68DB6F1343CB61314B03F580533F
:1042800018331B687B627A6A2F4B13407B627B6812
:10429000D3F880207B68D3F884301A437B68D3F846
:1042A00088301A437B68D3F88C301A437B68D3F884
:1042B00090301A437B68D3F894301A437B68D3F864
:1042C00098301A437B68D3F89C301A437B68D3F844
:1042D000A03013437A6A13437B62194B03F5805372
:1042E00018337A6A1A6016497B68D3F8A4207B6871
:1042F000D3F8A8301A437B68D3F8AC301A437B68F4
:10430000D3F8B0301A437B68D3F8B4309B001A431B
:104310007B68D3F8B830134343F4000201F58053AF
:104320001A600749064B03F580531B6843F080026F
:1043300001F580531A60012318462837BD4680BD19
:10434000008002400F8120FF233FDEF880B500AFE0
:10435000012000F00DF800F0B5FA012000F024F87B
:10436000012000F0C3FA012000F0E8FA80BD00BF90
:1043700080B483B000AF0346FB71FB79002B06D0FD
:10438000084A084B1B6843F00803136005E0054A20
:10439000044B1B6823F0080313600C37BD465DF81F
:1043A000047B70470080024080B483B000AF0346B6
:1043B000FB71FB79002B06D0084A084B1B6843F0C1
:1043C0000403136005E0054A044B1B6823F0040353
:1043D00013600C37BD465DF8047B704700800240D7
:1043E00080B485B000AF786039603B6805331B78D6
:1043F0001B023A68043212781343FB607A68114B4F
:1044000013441A46FB6813603B6803331B781A0693
:104410003B6802331B781B041A433B6801331B784B
:104420001B0213433A6812781343FB607A68064B09
:1044300013441A46FB6813601437BD465DF8047BCD
:10444000704700BF408002404480024090B486B074
:1044500000AF786000237B610023BB600023FB601A
:1044600000233B61174B1B681A68174B13401B0C4A
:10447000043B7B617B69BB60144B1B689B68012B11
:1044800005D9124B1B681B689B68FB6003E00D4B52
:104490001B689B68FB600B4B1B683B61094B1B68EF
:1044A000DB681A46074B1A607B681C4607F1080355
:1044B00093E8070084E8070078681837BD4690BC89
:1044C000704700BF947D00200000FF3F049C002047
:1044D00080B487B000AF0346FB8000237B610023DC
:1044E000BB6000233B61514B1B681B68002B01DA4A
:1044F000002395E04D4B1B68FB60FB8840F2F452B3
:10450000934217D9FB884A4AA2FB03239B0A9BB21A
:104510007B61FB88464AA2FB0312920A40F2F451E7
:1045200001FB02F29B1A9BB2002B05D07B69013381
:104530007B6101E001237B617B69012B1CD13B4B3B
:104540001B683A4A1268126842F040521A60374BB0
:104550001B68FA88C2F30C025A60344B1B68334A5A
:104560001268126842F000421A60304B1B68DB6828
:104570001A462E4B1A603DE000233B6133E03B6955
:10458000002B07D1294B1B68284A1268126842F099
:1045900080521A60FB6840F2F4525A607B695A1EDE
:1045A0003B699A4213D1FB681B6843F00052FB68D9
:1045B0001A60FA887B691F4901FB03F3134403F275
:1045C000F453BB60BB68C3F30C02FB685A60FB6822
:1045D0001B6843F00042FB681A60FB68DB68FB6005
:1045E0003B6901333B613A697B699A42C7D30F4A01
:1045F000FB681360104B03F5805314331B6803F002
:104600000403002B0BD00C4B03F58053143304220E
:104610001A60094B03F58053043300221A6001230A
:1046200018461C37BD465DF8047B7047987D002016
:104630000BB002AC0CFAFFFF0080024080B487B0E0
:1046400000AFF860B9607A6000237B61214AFB68A3
:10465000136000237B612AE07B695B01FA681344E5
:104660003B613B694FF000421A603B6944F2F452EF
:104670005A607B6940F2F45202FB03F3BA681344B8
:104680001A463B699A607B685A1E7B699A4208D930
:104690007B6901335B01FA6813441A463B69DA60AF
:1046A00002E0FA683B69DA607B6901337B617A6911
:1046B0007B689A42D0D3084BFA6803F580530C33D9
:1046C0001A60064B064A1A601C37BD465DF8047B2B
:1046D000704700BF947D002000800240049C0020B1
:1046E000887D002080B400AF314B1B681B68002B15
:1046F00012DB2F4B1B681B6803F48073002B0BD05D
:104700002C4B1B682A4A12685A602A4B1B689A680D
:1047100001329A60012345E0254B1B681B68002B82
:1047200021DB234B1B681B6803F40073002B1AD09A
:104730001F4B1B681B6803F48073002B13D11D4BA8
:104740001B681B4A12681A601A4B1B6800225A60C9
:10475000184B1B6801229A60154B1B68DB681A46D0
:10476000134B1A601DE0124B1B681B68002B18DBF3
:104770000F4B1B681B6803F40073002B11D10C4B0B
:104780001B681B6803F48073002B0AD1094B1B685C
:104790009A6801329A60064B1B68DB681A46044B24
:1047A0001A6000231846BD465DF8047B704700BFC1
:1047B000947D0020049C002080B487B000AFF86096
:1047C000B9607A6000237B611D4AFB681360002397
:1047D0007B6126E07B695B01FA6813443B613B69BE
:1047E0004FF480121A607B6940F2F45202FB03F32B
:1047F000BA6813441A463B699A607B685A1E7B6903
:104800009A4208D97B6901335B01FA6813441A465E
:104810003B69DA6002E0FA683B69DA607B69013380
:104820007B617A697B689A42D4D3064BFA6803F5B8
:10483000805310331A601C37BD465DF8047B704707
:10484000987D00200080024080B483B000AF786083
:1048500039607B681A683B681A437B681A600C37BA
:10486000BD465DF8047B704780B400AF0649064B37
:1048700003F580531B6843F0010201F580531A6071
:10488000BD465DF8047B70470080024080B483B071
:1048900000AF0023FB710A4B03F580531B6803F044
:1048A0000103002B02D00123FB7101E00023FB7107
:1048B000FB7918460C37BD465DF8047B704700BF96
:1048C0000080024080B400AF0749074B03F58053D6
:1048D00018331B6843F4801201F5805318331A60B3
:1048E000BD465DF8047B70470080024080B483B011
:1048F00000AF0346FB71FB79002B0CD00E490E4B29
:1049000003F5805318331B6843F4005201F58053BC
:1049100018331A600BE00849074B03F5805318332E
:104920001B6823F4005201F5805318331A600C37CA
:10493000BD465DF8047B70470080024080B483B0C0
:1049400000AF0346FB71FB79002B0CD00E490E4BD8
:1049500003F5805318331B6843F0020201F58053BE
:1049600018331A600BE00849074B03F580531833DE
:104970001B6823F0020201F5805318331A600C37CC
:10498000BD465DF8047B70470080024080B485B06E
:1049900000AF03460A46FB801346BB800023FB6042
:1049A0000023BB601E4B1B69FB60FB6803F01C030C
:1049B000FB60FB88DB029BB2FA681343FB60BB8899
:1049C0009B0103F4F863FA681343FB60FB6823F070
:1049D0000203FB60FB6843F00103FB60104AFB68C5
:1049E0001361BB680133BB600D4B1B69FB60FB6847
:1049F00003F00103002B03D0BB680A4A9342F0D9AD
:104A0000BB68094A934201D1002302E0044B5B6971
:104A10009BB218461437BD465DF8047B704700BF53
:104A200000800240FEFF0400FFFF040080B485B058
:104A300000AF0346FB800B46BB8013467B80002300
:104A4000FB600023BB601F4B1B69FB60FB6803F02E
:104A50001C03FB60FB88DB029BB2FA681343FB601C
:104A6000BB889B0103F4F863FA681343FB60FB689F
:104A700043F00203FB60FB6843F00103FB60114A53
:104A80007B8853610F4AFB681361BB680133BB60CD
:104A90000C4B1B69FB60FB6803F00103002B03D088
:104AA000BB68094A9342F0D9BB68084A934201D1D6
:104AB000002300E0012318461437BD465DF8047B4F
:104AC000704700BF00800240FEFF0400FFFF0400AB
:104AD00080B485B000AF786039607B681B68FB608C
:104AE000FB68B3F1FF3F02D0FB68002B01D101232B
:104AF00026E03B6893F8313003F00203002B01D12C
:104B000000231DE03B685A68FB689A4201D10023EC
:104B100016E07B681A683B685B685A403B689B6894
:104B20001340002B0BD13B689B68DA43FB681A40AB
:104B30003B689B68DB439A4201D1012300E00023DC
:104B400018461437BD465DF8047B704780B586B0C3
:104B500000AF78600B467B8000237B617B683B6104
:104B600017E03B691B789BB21B02FB813B69013359
:104B70003B613B691B789AB2FB891343FB813B691C
:104B800001333B61FB897A6913447B617B88023B7B
:104B90007B807B88012BE4D87B88002B08D03B6985
:104BA0001B789BB21B02FB81FB897A6913447B61F2
:104BB0007B691A0C7B699BB213447B617B691B0C7C
:104BC0001B04002B05D07B691A0C7B699BB2134434
:104BD0007B617B699BB2184602F060FC0346184675
:104BE0001837BD4680BD00BF80B582B000AF786089
:104BF0000B467B807B8878681946FFF7A7FF034642
:104C0000DB439BB218460837BD4680BD80B586B0F1
:104C100000AF786000237B610023FB737B683B61FE
:104C200029E03B695A683B695B8910461946FFF7E2
:104C30008DFF03461A467B6913447B617B691A0C1E
:104C40007B699BB213447B613B695B8903F0010381
:104C50009BB2002B0CD0FB7BC3F10103FB737B6980
:104C60001B029AB27B6903F47F431B0A13437B61E7
:104C70003B691B683B613B69002BD2D1FB7B002B5E
:104C800008D07B691B029AB27B6903F47F431B0A3D
:104C900013437B617B699BB2DB439BB21846183799
:104CA000BD4680BD80B500AF02F054FEFEF7F0FFB8
:104CB00000F0AEFD00F060FB00F018F801F088F89D
:104CC0000020FFF755F8FFF70DFD0346002B04D039
:104CD0000320FFF76BF800F089FB034B1B681846B5
:104CE00000F08CFBEFE700BF807C002080B582B035
:104CF00000AFFCF7C3FB0246124B1A60114B1B6856
:104D0000002B1BD00F4B1B6818460F490722FBF7DF
:104D1000F9FD0346FB7197F90730002B0ED1094BC3
:104D20001B681846FF21FBF7BBFE0246054B1A60C5
:104D3000044B1B6818460549FCF7E0FB0837BD46E5
:104D400080BD00BF7C7C002050A50008514D0008AC
:104D500080B586B000AFF860B9601346FB71B868E3
:104D60004021FCF763FA0C20FBF7EEFB38613B694E
:104D7000002B1CD03B6901221A703B69BA685A604B
:104D80003B6900229A60B8683969FCF77FFBB86814
:104D90000B49FCF789FBB8680A49FCF7A1FBB86826
:104DA00009490122FCF7B8FB0023FB7501E0FF2352
:104DB000FB75FB7D5BB218461837BD4680BD00BF52
:104DC000CD4D0008BD4E0008E14E000880B588B00A
:104DD00000AFF860B9607A60FB70FB68BB617B680C
:104DE000002B16D1BB6903221A70BB699B68002B8C
:104DF00004D1B868B96900F011F907E0B8682E4924
:104E0000FCF760FBB868B96900F0B4F80023FB77E1
:104E10004CE097F90330002B0BD07B68002B05D0BA
:104E2000BB6900229A60786802F09AF9FB78FB77F8
:104E30003CE0BB691B78012B10D1BB6902221A70C0
:104E4000BB697A689A60B8681B49FCF73BFBB86895
:104E5000B96900F017F90023FB7727E0BB691B78DD
:104E6000022B15D1BB699B68002B07D1BB697A68FF
:104E70009A60B868B96900F005F906E0BB699B68FB
:104E80007B617869796802F013FA0023FB770DE003
:104E90007B681B89B8681946FBF7CAFEBB6900220C
:104EA0009A60786802F05CF90023FB77FB7F5BB2C5
:104EB00018462037BD4680BD354F000880B584B008
:104EC00000AF78600B46FB707B68FB60FB68002BD3
:104ED00002D0F868FBF748FA1037BD4680BD00BF26
:104EE00080B584B000AF786039607B68BB60BB6818
:104EF000002B13D0BB689B68002B04D03868B968BE
:104F000000F038F807E0BB681B78032B03D1386842
:104F1000B96800F083F80023FB7305E038680121CD
:104F2000FBF780FCFB23FB73FB7B5BB2184610375F
:104F3000BD4680BD80B586B000AFF860B96013464D
:104F4000FB80FB687B617B699B68002B04D0B868A1
:104F5000796900F00FF807E07B691B78032B03D118
:104F6000B868796900F05AF800235BB21846183720
:104F7000BD4680BD80B586B000AF78603960002343
:104F8000FB7536E03B689B683B61234805F016FAE9
:104F900003469BB2786820491A46012303F074FF48
:104FA0000346FB7597F91730002B1AD11A4805F004
:104FB00005FA0346FB813B691A683B689A603B68C7
:104FC0009B68002B04D03B689B68184602F030F9C0
:104FD000386902F0C5F8FB8978681946FBF728FEA6
:104FE00007E097F91730B3F1FF3F02D13B683A6908
:104FF0009A6097F91730002B0BD13B689B68002B08
:1050000007D03B689B685A897B68B3F86E309A4238
:10501000B8D91837BD4680BD6CBA002080B582B0C3
:1050200000AF7860396078680021FCF72FFA786863
:105030000021FCF747FA78680021FCF735FA786818
:105040000021FCF74DFA786800210022FCF764FA91
:105050003B68002B02D03868FBF786F97868FBF7CD
:105060002FFB0837BD4680BD80B400AF044B1B68E2
:105070000A33034A1360BD465DF8047B704700BFE6
:10508000807C002080B582B000AF786039603B68DA
:105090009B685B6818461F4904F0C6FF0346002B57
:1050A00009D10120FEF764FE1B4B1C4A118892783F
:1050B00019809A7026E03B689B685B68184618491F
:1050C00004F0B2FF0346002B09D10120FEF732FEA7
:1050D000114B124A1188927819809A7012E03B683D
:1050E0009B685B6818460F4904F09EFF0346002B3F
:1050F00002D100F01BF805E0074B0B4A106818605E
:1051000092889A8078683968FFF734FF00BF0837C3
:10511000BD4680BD58A500086CBA00205CA50008FB
:1051200060A5000864A5000868A5000880B582B0E5
:1051300000AF54233B600023BB80002000F080FEC2
:105140000346FB80FB88184608490A2204F02AFE21
:105150003B461846054904F041FF3B4603481946C3
:1051600005F0CEF800BF0837BD4680BD6CBA002000
:1051700080B489B000AF78600023BB6100237B61FD
:105180000023FB6102233B610023FB600223BB6021
:10519000484B9B6803F00C03BB61BB69042B07D031
:1051A000082B09D0002B3FD17B68434A1A603FE0AF
:1051B0007B68424A1A603BE03E4B5B6803F4800325
:1051C0009B0DFB603B4B5B6803F03F03BB60FB68E0
:1051D000002B0DD0394ABB68B2FBF3F2354B59684E
:1051E00047F6C0730B409B0903FB02F3FB610CE025
:1051F000314ABB68B2FBF3F22E4B596847F6C073D5
:105200000B409B0903FB02F3FB612A4B5B6803F431
:1052100040331B0C01335B003B61FA693B69B2FB15
:10522000F3F27B681A6003E07B68234A1A6000BFD0
:10523000204B9B6803F0F003BB61BB691B09BB619A
:105240001F4ABB6913441B78DBB27B617B681A6819
:105250007B69DA407B685A60164B9B6803F4E05325
:10526000BB61BB699B0ABB61154ABB6913441B78D0
:10527000DBB27B617B685A687B69DA407B689A6045
:105280000C4B9B6803F46043BB61BB695B0BBB6168
:105290000B4ABB6913441B78DBB27B617B685A689D
:1052A0007B69DA407B68DA602437BD465DF8047BB1
:1052B000704700BF003802400024F40000127A005A
:1052C0008400002080B483B000AF78600B46FB7090
:1052D000FB78002B06D00949084B1A6B7B681343F7
:1052E0000B6306E00549054B1A6B7B68DB431340F3
:1052F0000B630C37BD465DF8047B704700380240F5
:1053000080B483B000AF78600B46FB70FB78002B55
:1053100006D00949084B5A6C7B6813434B6406E07E
:105320000549054B5A6C7B68DB4313404B640C37D3
:10533000BD465DF8047B70470038024080B483B0FE
:1053400000AF78600B46FB70FB78002B06D0094954
:10535000084B1A697B6813430B6106E00549054B4E
:105360001A697B68DB4313400B610C37BD465DF85F
:10537000047B70470038024090B589B004AFFAF75B
:10538000B1FFFDF70FFE144802F0ACF80346FB60D6
:105390006FF0FF0002F0A6F80346BB600F4802F072
:1053A000A1F803467B6007F10C0107F108023C1DE0
:1053B000002300930A4B01930A4B02930A482346A9
:1053C00002F0B6F8084802F08FF9074802F09AF99F
:1053D0001437BD4690BD00BF0A02A8C00102A8C094
:1053E000915D00083D6D000874BA002080B500AFE3
:1053F000014800F0A9FC80BD74BA002080B582B0DD
:1054000000AF78607A680D4B1B68D31AF92B04D96A
:105410007B680A4A1360FBF73DF97A68084B1B6802
:10542000D31A41F28732934204D97B68044A13604D
:1054300000F034FE0837BD4680BD00BF847C0020EC
:10544000887C002080B485B000AF7860396000238C
:10545000FB600023FB727B685B68FB60FB6823F0EA
:10546000407323F48073FB603B681B791A023B682E
:105470001B681343FA681343FB607B68FA685A6041
:105480007B689B68FB60FA68174B1340FB603B68C6
:105490001A693B68DB681A433B689B681A433B68A0
:1054A0005B795B001343FA681343FB607B68FA681F
:1054B0009A607B68DB6AFB60FB6823F47003FB6027
:1054C0003B681B7D013BDAB2FB7A1343FB72FB7A2C
:1054D0001B05FA681343FB607B68FA68DA621437CD
:1054E000BD465DF8047B7047FDF7FFC080B485B012
:1054F00000AF78600023FB600E4B5B68FB60FA68CE
:105500000D4B1340FB607B681A687B685B681A432D
:105510007B689B681A437B68DB681343FA68134314
:10552000FB60044AFB6853601437BD465DF8047B9A
:10553000704700BF00230140E030FCFF80B483B01F
:1055400000AF78600B46FB70FB78002B06D07B68C1
:105550009B6843F001027B689A6005E07B689B686A
:1055600023F001027B689A600C37BD465DF8047B2E
:10557000704700BF80B485B000AF78600846114620
:105580001A460346FB700B46BB7013467B70002324
:10559000FB600023BB60FB78092B23D97B68DB68A9
:1055A000FB60FB78A3F10A0213465B001344072259
:1055B00002FA03F3BB60BB68DB43FA681340FB608D
:1055C0007978FB78A3F10A0213465B00134401FAD1
:1055D00003F3BB60FA68BB681343FB607B68FA683F
:1055E000DA601EE07B681B69FB60FA7813465B009B
:1055F0001344072202FA03F3BB60BB68DB43FA687B
:105600001340FB607978FA7813465B00134401FA83
:1056100003F3BB60FA68BB681343FB607B68FA68FE
:105620001A61BB78062B21D87B685B6BFB60BB786B
:105630005A1E13469B0013441F2202FA03F3BB6059
:10564000BB68DB43FA681340FB60F978BB785A1EED
:1056500013469B00134401FA03F3BB60FA68BB686E
:105660001343FB607B68FA685A6347E0BB780C2BF6
:1056700021D87B681B6BFB60BB78DA1F13469B004D
:1056800013441F2202FA03F3BB60BB68DB43FA68D2
:105690001340FB60F978BB78DA1F13469B00134474
:1056A00001FA03F3BB60FA68BB681343FB607B68D5
:1056B000FA681A6322E07B68DB6AFB60BB78A3F1BF
:1056C0000D0213469B0013441F2202FA03F3BB6032
:1056D000BB68DB43FA681340FB60F978BB78A3F141
:1056E0000D0213469B00134401FA03F3BB60FA68F2
:1056F000BB681343FB607B68FA68DA621437BD4607
:105700005DF8047B704700BF80B483B000AF786061
:105710007B689B6843F080427B689A600C37BD468B
:105720005DF8047B704700BF80B483B000AF786041
:105730007B68DB6C9BB218460C37BD465DF8047B7A
:10574000704700BF80B485B000AF78600B46FB7037
:105750000023FB737B681A68FB781340002B02D090
:105760000123FB7301E00023FB73FB7B1846143716
:10577000BD465DF8047B704780B483B000AF03463C
:105780003960FB7197F90730002B0BDA0D49FB7973
:1057900003F00F03043B3A68D2B21201D2B20B44B9
:1057A0001A7609E0084997F907303A68D2B212012F
:1057B000D2B20B4483F800230C37BD465DF8047B5E
:1057C000704700BF00ED00E000E100E080B582B06E
:1057D00000AF78607B68B3F1807F01D3012311E0D3
:1057E0000A4A7B6823F07F43013B53604FF0FF3050
:1057F0000F21FFF7C1FF054B00229A60034B0722E0
:105800001A60002318460837BD4680BD10E000E04E
:1058100080B584B000AF00F0A9F800F025F8104B77
:105820001B68002B01D1012316E0012000F00AF9CA
:105830000346012B01D002230EE000F03FF93B4666
:105840001846FFF795FC7B68064AA2FB03235B0919
:105850001846FFF7BBFF002318461037BD4680BD32
:10586000907C00201F85EB5180B5B2B000AF0023C3
:10587000C7F8C430002387F8C3304FF060600121BF
:10588000FFF720FDFEF7CEFAFEF7EEFF14E0FEF77D
:10589000FDFF0346012B02D0012387F8C330D7F860
:1058A000C4300133C7F8C430D7F8C4302D4A93420E
:1058B00002D9022387F8C33097F8C330002BE6D013
:1058C00097F8C330022B49D03B1D1846FEF7B8FAB3
:1058D00001237B6000233B624FF40073FB620023D3
:1058E0003B630023FB630023BB6400233B65002371
:1058F0007B650023BB654FF48063BB620023C7F860
:1059000084304FF00073C7F888304FF40013C7F8A5
:1059100090300023C7F898300023C7F89C30042348
:10592000C7F8A4304FF00073C7F8A8304FF48033A5
:10593000C7F8AC304FF48003C7F8B0304FF40053D1
:10594000C7F8B4304FF48043C7F8BC303B1D18464D
:105950000121FEF723FB0246034B1A60C837BD4600
:1059600080BD00BF20A10700907C002080B582B0E0
:1059700000AF07200121FFF7A5FC4FF48040012173
:10598000FFF7BEFC4FF480733B6003237B7102235F
:105990003B710023BB710023FB713B46264819462F
:1059A00001F002FF0120FAF731FC86233B603B4601
:1059B0002148194601F0F8FE1F4801210B2201F091
:1059C00081FF1D4802210B2201F07CFF1A480721AC
:1059D0000B2201F077FF4FF460533B603B461748C2
:1059E000194601F0E1FE15480B210B2201F06AFF78
:1059F00012480C210B2201F065FF10480D210B22EB
:105A000001F060FF32233B603B460D48194601F030
:105A1000CBFE0B4801210B2201F054FF0848042162
:105A20000B2201F04FFF064805210B2201F04AFF2F
:105A30000837BD4680BD00BF0000024000040240A0
:105A40000008024080B584B000AF0346FB8000230D
:105A5000FB60FB8818461121FEF798FF0346FB60A8
:105A6000FB6843F00303FB60FB689BB2FA881046B7
:105A700011211A46FEF7DAFF0346002B01D100235D
:105A800018E0FB8818461221FEF780FF0346FB60F2
:105A9000FB6843F02003FB60FB689BB2FA8810466A
:105AA00012211A46FEF7C2FF0346002B01D1002344
:105AB00000E0012318461037BD4680BD80B586B092
:105AC00000AF02200121FFF7FDFB4FF480400121D0
:105AD000FFF716FC00233B750023FB754FF4804352
